:1000000001308A005E29000052080F39213E840029
:1000100083130008F80008001830F700F70B0E28CB
:100020001128080083160510831205100C20080003
:100030005A08DB00DC015C08073C031C39288316E6
:100040008510831285100C205B1C2B28831605104D
:10005000831205142F2883160510831205100C2017
:1000600083168510831285140C200310DB0CDC0A28
:100070001B288316851083128510831605108312A2
:1000800005140C2083168510831285140C2083160A
:1000900005148312DD010518DD0ADD08031D54284F
:1000A00083160510831205100C2083168510831209
:1000B00085100C205D08F8000800831605108312D7
:1000C00005100C2083168510831285140C208316CE
:1000D0000510831205140C2008003E08273C031C61
:1000E0004829031D77283D080F3C031C48293E087A
:1000F000C2003D08C100C3010130C4000430C50086
:10010000C6014B14CC014C08033C031C13294C08BA
:10011000033CF7000310F70D7708313E840083138A
:10012000840A0008CE0084030008CD004208D300F2
:100130004108D2004E08D5004D08D400F801F9015D
:10014000F701FA015508031DA82854080319C2280D
:100150001030D6000310D20DD30DF70DFA0D55084F
:100160007A02031DB52854087702031CBE285408E0
:10017000F702031CFA035508FA020314F80DF90DEF
:10018000D60BAA287908D0007808CF00D101CF0873
:10019000031DDE28D008031DDE28C408031DD62851
:1001A0004B1CD6284C08033C031DDC284F08D2000A
:1001B00004207808D100DD28D10106294F08D2009B
:1001C00004207808D1005008D3004F08D2004E0810
:1001D000D5004D08D4001030D600F701FA01D30C39
:1001E000D20C031CF9285408F7070318FA0A55081B
:1001F000FA07FA0CF70CF90CF80CD60BEF28780874
:10020000C1027908031C790FC2024B1043088039E0
:10021000D1040310C30D47304C07840083135108E9
:100220008000CC0A83284508043C473ED200D30115
:100230000318D30A5308D5005208D4004508D60045
:100240004608D70012204030DA0018205D20122026
:1002500057080339C03ED900DA001820D8015608E3
:10026000580203183F29580854078400831355186F
:1002700083170008D900DA001820D80A2F295D203A
:10028000122020080F39803ED900DA0018205D20A6
:10029000AA293B3084008313000803195D2901302B
:1002A000F800F701F70B5229F80B51294A30F700F3
:1002B000F70B58295B29800B4F29AD2903081F39FB
:1002C000830083168E1523308312BA002830B900BC
:1002D00007309F0083133F30A1000630A2005B303F
:1002E000A3004F30A4006630A5006D30A6007D301D
:1002F000A7000730A8007F30A9006F30AA00773030
:10030000AB007C30AC003930AD005E30AE007930EF
:10031000AF007130B0000130B100B2010A30B3005B
:10032000B4016430B500B601E830B7000330B8005E
:10033000831605110430831285063A08FA0039083D
:10034000B90A0319BA0ABB007A08BC00BE003B0810
:0E035000BD006D283230BB004929982963009A
:02400E00583F19
:00000001FF
;PIC16F628A
;CRC=0B89  CREATED="23-ago-20 21:51"
